:0A008F003F065B4F666D7D077F6F33
:090099007FFFAE071FEE70FA2292
:10000300EF75F002120061AEF0EE24FF92A2EFA2B0
:10001300E713FE75F002120061AEF0EE24FF92A327
:10002300EFA2E713A2E713FF75F002120061AFF02E
:06003300EF24FF92A4225D
:10003900750807750901AF081508120003AF09050E
:1000490009EF90008F93F580120099E509B409E64C
:0800590075090175080780DE3E
:0300000002008378
:0C008300787FE4F6D8FD75810902003991
:10006100C2D530F707B2D563F0FF05F030E70CB227
:10007100D5F4048463F0FF05F080018430D502F4E7
:02008100042257
:00000001FF
