:0D00C300E4FFE4FE0EBE21FC0FBF0AF62292
:0E00B500AD07AF051DEF60051200C380F522F8
:10004700E4FED2B3EF25E0FFA2B4E4334207C2B324
:050057000EBE08EE22C0
:10009500D2B4D2B300000000C2B400000000C2B365
:0100A5002238
:10005C00C2B4D2B300000000D2B400000000C2B49D
:03006C00C2B322FA
:10000300E4FEEF3392B400D2B30000C2B3EF25E0B5
:10001300FF0EBE08EDD2B40000D2B300000000A270
:08002300B49200C2B3A2002256
:10002B00AC071200957FA0120003AF04120003AFC0
:0C003B000512000312005C7F040200B5F7
:0F00A6001200957FA112000312004712005C2286
:10006F00AD071200957FA0120003AF051200031217
:03007F0000A622B6
:10008200D2B4D2B37D0F7F3612002B7F3612006FAF
:030092008F90222A
:030000000200D02B
:0C00D000787FE4F6D8FD758120020082E4
:00000001FF
