:0D008E00E4FFE4FE0EBE21FC0FBF0AF622C7
:0E008000AD07AF051DEF600512008E80F52262
:10006D00C2A0D2A1D2A200000000A2879200C2A21B
:03007D00A20022BC
:070030007F051200807F38FC
:1000370012006D40FBC2A0C2A1C2A200008F8000C7
:0C004700000000D2A200000000C2A222B3
:0700B400EF2480FF0200377A
:1000530012006D40FBD2A0C2A1C2A28F800000009B
:0A00630000D2A200000000C2A22299
:100003007F0F1200321200301200307F0512008081
:100013007F0F1200377F051200807F061200371F03
:0D0023001200807F011200377F050200806F
:0D009B001200037F701200B47F4102005379
:030000000200A853
:0C00A800787FE4F6D8FD75812002009BF3
:00000001FF
