:0D008E00E4FFE4FE0EBE21FC0FBF0AF622C7
:0E008000AD07AF051DEF600512008E80F52262
:10006D00C2A6D2A5D2A700000000A2879200C2A707
:03007D00A20022BC
:070030007F051200807F38FC
:1000370012006D40FBC2A6C2A5C2A700008F8000B8
:0C004700000000D2A700000000C2A722A9
:0700B400EF2480FF0200377A
:1000530012006D40FBD2A6C2A5C2A78F800000008C
:0A00630000D2A700000000C2A7228F
:100003007F0F1200321200301200307F0512008081
:100013007F0F1200377F051200807F061200371F03
:0D0023001200807F011200377F050200806F
:0D009B001200037F701200B47F4102005379
:030000000200A853
:0C00A800787FE4F6D8FD75812002009BF3
:00000001FF
