:02000000013AC3
:10003000C0F9A4B0999282F88090900030114311D9
:10004000AC013D74F0F5906590600A11CD74F065D7
:1000500090600211562274E065907006754001119F
:10006000802274D06590700675400211802274B0B1
:10007000659070067540031180227540041180223E
:10008000740FF590740E6590700122740D65907078
:1000900007E5402404F54022740B65907007E540A5
:1000A0002408F54022E540240CF54022E54075F097
:1000B0000A84C2A1D2A090003093F58011DAE5F055
:1000C000C2A0D2A190003093F58011DA227F017E88
:1000D000267D82DDFEDEFADFF6227F027D47DDFE31
:0300E000DFFA2222
:00000001FF
