:02000000013AC3
:10003000C0F9A4B0999282F8809090003075400089
:1000400011461192014074F0F5906590600A11B369
:1000500074F0659060021159227410F8054064F044
:1000600065907003117122E823B480EF054011718F
:1000700022740FF5907801E5402404F540E8640F00
:100080006590700122E823F8B408ECE5402404F5FB
:100090004022E54075F00A84C2A1D2A090003093BE
:1000A000F58011C0E5F0C2A0D2A190003093F58098
:1000B00011C0227F017E267D82DDFEDEFADFF62280
:0900C0007F027D47DDFEDFFA221C
:00000001FF
