:0A011A00C0F9A4B0999282F88009A0
:0F00FF007FF47E01EF1FAC0670011E4C70F622DD
:1000B20075A001E50875F00A8490011A93F5801283
:1000C20000FF75A002E50875F00A84E5F093F5805B
:0300D2000200FF2A
:1000EC007F647E3CAD071FED6008AD061EED60F42D
:0300FC0080F82267
:1000D500D2AFD2A9758901758CFE758A0BD28CE4D5
:0700E500F5081200B280FBD8
:03000B0002000EE2
:10000E00C0E0C0D075D000C005C006C007C28C7558
:10001E0090F0E59054F064F060031200ECE590541B
:10002E00F064F0606C7590FE2094037508012095C5
:10003E0003750802209603750803209703750804BC
:10004E007590FD209403750805209503750806200C
:10005E0096037508072097037508087590FB209482
:10006E000375080920950375080A20960375080B79
:10007E0020970375080C7590F720940375080D20D2
:10008E00950375080E20960375080F2097037508C3
:10009E0010D28C758CFE758A0BD007D006D005D089
:0400AE00D0D0E0329C
:0300000002010EEC
:0C010E00787FE4F6D8FD7581080200D56A
:00000001FF
