:020000002100DD
:03001B00020119C6
:0A003000C0F9A4B0999282F8809004
:03004000000100BC
:10010000758160758910753064D2ABD2AF758DD8AA
:10011000758BEFD28E315580FCC0D0C0E0758DD884
:10012000758BEFD5302A7530640540E540D4F54035
:10013000B4601D7540000541E541D4F541B460103F
:100140007541000542E542D4F542B42403754200EE
:10015000D0E0D0D0329000307401F5A0E54254F0E8
:10016000C493F58031AE7402F5A0E542540F935468
:100170007FF58031AE7404F5A0E54154F0C493F5E9
:100180008031AE7408F5A0E541540F93547FF5809B
:1001900031AE7410F5A0E54054F0C493F58031AE53
:1001A0007420F5A0E540540F93F58031AE227F0214
:0701B0007D47DDFEDFFA22AE
:00000001FF
