:0C010A00040C08040201040801020408AF
:0900DE0029F8E6F5807F047E009C
:1000E700E4FCFD7B70FA0DED8C8370010C14D39F3B
:1000F700E5839E400DEB1B8A8370011A458360E6FA
:0301070080F32260
:0C011700E4F9740C1200DE09B904F722B0
:0C012300E4F974081200DE09B904F722A8
:04012F00E4F5802251
:10008F007F327E001200E7E4F510F511120117051B
:10009F0011E51170020510C39402E510940240ECB3
:1000AF0012012F7FF47E011200E7E4F510F5111213
:1000BF0001230511E51170020510C39402E5109498
:0F00CF000240EC12012F7FF47E011200E780B88F
:03000000020003F8
:0C000300787FE4F6D8FD75811102004AF8
:10000F0002008FE493A3F8E493A34003F68001F278
:10001F0008DFF48029E493A3F85407240CC8C333F2
:10002F00C4540F4420C8834004F456800146F6DFC1
:10003F00E4800B010204081020408090010AE47E46
:10004F00019360BCA3FF543F30E509541FFEE493B6
:10005F00A360010ECF54C025E060A840B8E493A37D
:10006F00FAE493A3F8E493A3C8C582C8CAC583CAA8
:10007F00F0A3C8C582C8CAC583CADFE9DEE780BE60
:0101160000E8
:00000001FF
